{
  "_format": "hh-sol-artifact-1",
  "contractName": "MedicineVerification",
  "sourceName": "contracts/MedicineVerification.sol",
  "abi": [
    {
      "inputs": [],
      "stateMutability": "nonpayable",
      "type": "constructor"
    },
    {
      "anonymous": false,
      "inputs": [
        {
          "indexed": false,
          "internalType": "bytes32",
          "name": "batchIdHash",
          "type": "bytes32"
        },
        {
          "indexed": false,
          "internalType": "address",
          "name": "manufacturer",
          "type": "address"
        },
        {
          "indexed": false,
          "internalType": "string",
          "name": "ipfsCid",
          "type": "string"
        }
      ],
      "name": "BatchRegistered",
      "type": "event"
    },
    {
      "anonymous": false,
      "inputs": [
        {
          "indexed": false,
          "internalType": "bytes32",
          "name": "batchIdHash",
          "type": "bytes32"
        },
        {
          "indexed": false,
          "internalType": "uint256",
          "name": "timestamp",
          "type": "uint256"
        }
      ],
      "name": "BatchVerified",
      "type": "event"
    },
    {
      "anonymous": false,
      "inputs": [
        {
          "indexed": false,
          "internalType": "address",
          "name": "manufacturer",
          "type": "address"
        }
      ],
      "name": "ManufacturerAuthorized",
      "type": "event"
    },
    {
      "anonymous": false,
      "inputs": [
        {
          "indexed": false,
          "internalType": "address",
          "name": "manufacturer",
          "type": "address"
        }
      ],
      "name": "ManufacturerRevoked",
      "type": "event"
    },
    {
      "inputs": [
        {
          "internalType": "address",
          "name": "manufacturer",
          "type": "address"
        }
      ],
      "name": "authorizeManufacturer",
      "outputs": [],
      "stateMutability": "nonpayable",
      "type": "function"
    },
    {
      "inputs": [
        {
          "internalType": "address",
          "name": "",
          "type": "address"
        }
      ],
      "name": "authorizedManufacturers",
      "outputs": [
        {
          "internalType": "bool",
          "name": "",
          "type": "bool"
        }
      ],
      "stateMutability": "view",
      "type": "function"
    },
    {
      "inputs": [
        {
          "internalType": "bytes32",
          "name": "",
          "type": "bytes32"
        }
      ],
      "name": "batches",
      "outputs": [
        {
          "internalType": "address",
          "name": "manufacturer",
          "type": "address"
        },
        {
          "internalType": "uint256",
          "name": "registeredAt",
          "type": "uint256"
        },
        {
          "internalType": "string",
          "name": "ipfsCid",
          "type": "string"
        },
        {
          "internalType": "uint256",
          "name": "verificationCount",
          "type": "uint256"
        },
        {
          "internalType": "bool",
          "name": "isRegistered",
          "type": "bool"
        }
      ],
      "stateMutability": "view",
      "type": "function"
    },
    {
      "inputs": [
        {
          "internalType": "string",
          "name": "batchId",
          "type": "string"
        }
      ],
      "name": "getBatchIdHashFromBatchId",
      "outputs": [
        {
          "internalType": "bytes32",
          "name": "",
          "type": "bytes32"
        }
      ],
      "stateMutability": "pure",
      "type": "function"
    },
    {
      "inputs": [
        {
          "internalType": "bytes32",
          "name": "batchIdHash",
          "type": "bytes32"
        }
      ],
      "name": "getBatchRecordByHash",
      "outputs": [
        {
          "internalType": "bool",
          "name": "isRegistered",
          "type": "bool"
        },
        {
          "internalType": "string",
          "name": "ipfsCid",
          "type": "string"
        },
        {
          "internalType": "uint256",
          "name": "registeredAt",
          "type": "uint256"
        },
        {
          "internalType": "address",
          "name": "manufacturer",
          "type": "address"
        },
        {
          "internalType": "uint256",
          "name": "verificationCount",
          "type": "uint256"
        }
      ],
      "stateMutability": "view",
      "type": "function"
    },
    {
      "inputs": [],
      "name": "owner",
      "outputs": [
        {
          "internalType": "address",
          "name": "",
          "type": "address"
        }
      ],
      "stateMutability": "view",
      "type": "function"
    },
    {
      "inputs": [
        {
          "internalType": "string",
          "name": "batchId",
          "type": "string"
        },
        {
          "internalType": "address",
          "name": "manufacturer",
          "type": "address"
        },
        {
          "internalType": "uint256",
          "name": "timestamp",
          "type": "uint256"
        },
        {
          "internalType": "string",
          "name": "ipfsCid",
          "type": "string"
        }
      ],
      "name": "registerMedicineBatch",
      "outputs": [
        {
          "internalType": "bytes32",
          "name": "",
          "type": "bytes32"
        }
      ],
      "stateMutability": "nonpayable",
      "type": "function"
    },
    {
      "inputs": [
        {
          "internalType": "address",
          "name": "manufacturer",
          "type": "address"
        }
      ],
      "name": "revokeManufacturer",
      "outputs": [],
      "stateMutability": "nonpayable",
      "type": "function"
    },
    {
      "inputs": [
        {
          "internalType": "string",
          "name": "batchId",
          "type": "string"
        }
      ],
      "name": "verifyBatch",
      "outputs": [
        {
          "internalType": "bool",
          "name": "isAuthentic",
          "type": "bool"
        },
        {
          "internalType": "string",
          "name": "ipfsCid",
          "type": "string"
        },
        {
          "internalType": "uint256",
          "name": "registeredAt",
          "type": "uint256"
        },
        {
          "internalType": "address",
          "name": "manufacturer",
          "type": "address"
        },
        {
          "internalType": "uint256",
          "name": "verificationCount",
          "type": "uint256"
        }
      ],
      "stateMutability": "nonpayable",
      "type": "function"
    },
    {
      "inputs": [
        {
          "internalType": "bytes32",
          "name": "batchIdHash",
          "type": "bytes32"
        }
      ],
      "name": "verifyByHash",
      "outputs": [
        {
          "internalType": "bool",
          "name": "isAuthentic",
          "type": "bool"
        },
        {
          "internalType": "string",
          "name": "ipfsCid",
          "type": "string"
        },
        {
          "internalType": "uint256",
          "name": "registeredAt",
          "type": "uint256"
        },
        {
          "internalType": "address",
          "name": "manufacturer",
          "type": "address"
        },
        {
          "internalType": "uint256",
          "name": "verificationCount",
          "type": "uint256"
        }
      ],
      "stateMutability": "nonpayable",
      "type": "function"
    }
  ],
  "bytecode": "0x608060405234801561001057600080fd5b5033600260006101000a81548173ffffffffffffffffffffffffffffffffffffffff021916908373ffffffffffffffffffffffffffffffffffffffff16021790555060018060003373ffffffffffffffffffffffffffffffffffffffff1673ffffffffffffffffffffffffffffffffffffffff16815260200190815260200160002060006101000a81548160ff021916908315150217905550611707806100b86000396000f3fe608060405234801561001057600080fd5b506004361061009e5760003560e01c8063a7a05d0d11610066578063a7a05d0d1461015d578063c81e25ab1461018d578063e906dc42146101c1578063eef5abef146101f5578063f728df68146102255761009e565b8063089e1b39146100a357806318b45238146100bf57806324b04245146100db5780635d4dd1be1461010b5780638da5cb5b1461013f575b600080fd5b6100bd60048036038101906100b89190610cac565b610259565b005b6100d960048036038101906100d49190610cac565b61037a565b005b6100f560048036038101906100f09190610cac565b61049c565b6040516101029190610cf4565b60405180910390f35b61012560048036038101906101209190610d45565b6104bc565b604051610136959493929190610e2a565b60405180910390f35b61014761061e565b6040516101549190610e84565b60405180910390f35b61017760048036038101906101729190610fd4565b610644565b604051610184919061102c565b60405180910390f35b6101a760048036038101906101a29190610d45565b610674565b6040516101b8959493929190611047565b60405180910390f35b6101db60048036038101906101d69190610fd4565b61075f565b6040516101ec959493929190610e2a565b60405180910390f35b61020f600480360381019061020a91906110cd565b6108ed565b60405161021c919061102c565b60405180910390f35b61023f600480360381019061023a9190610d45565b610b37565b604051610250959493929190610e2a565b60405180910390f35b600260009054906101000a900473ffffffffffffffffffffffffffffffffffffffff1673ffffffffffffffffffffffffffffffffffffffff163373ffffffffffffffffffffffffffffffffffffffff16146102e9576040517f08c379a00000000000000000000000000000000000000000000000000000000081526004016102e0906111de565b60405180910390fd5b60018060008373ffffffffffffffffffffffffffffffffffffffff1673ffffffffffffffffffffffffffffffffffffffff16815260200190815260200160002060006101000a81548160ff0219169083151502179055507f06254beaf84c859845ea388376dff86c215438fa7cb62de9f3b40aae51571ec28160405161036f9190610e84565b60405180910390a150565b600260009054906101000a900473ffffffffffffffffffffffffffffffffffffffff1673ffffffffffffffffffffffffffffffffffffffff163373ffffffffffffffffffffffffffffffffffffffff161461040a576040517f08c379a0000000000000000000000000000000000000000000000000000000008152600401610401906111de565b60405180910390fd5b6000600160008373ffffffffffffffffffffffffffffffffffffffff1673ffffffffffffffffffffffffffffffffffffffff16815260200190815260200160002060006101000a81548160ff0219169083151502179055507fd45d196334d0d06ea301cc8b965da9c0afd7dd9bd61ebcf127f0575c45e7b46b816040516104919190610e84565b60405180910390a150565b60016020528060005260406000206000915054906101000a900460ff1681565b6000606060008060008060008088815260200190815260200160002090508060040160009054906101000a900460ff169550851561054a576001816003016000828254610509919061122d565b925050819055507ff3770967cfefb85aaf87a4d76b338958f8c04b418c723508c723892ee12ac9428742604051610541929190611261565b60405180910390a15b858160020182600101548360000160009054906101000a900473ffffffffffffffffffffffffffffffffffffffff16846003015483805461058a906112b9565b80601f01602080910402602001604051908101604052809291908181526020018280546105b6906112b9565b80156106035780601f106105d857610100808354040283529160200191610603565b820191906000526020600020905b8154815290600101906020018083116105e657829003601f168201915b50505050509350955095509550955095505091939590929450565b600260009054906101000a900473ffffffffffffffffffffffffffffffffffffffff1681565b6000816040516020016106579190611326565b604051602081830303815290604052805190602001209050919050565b60006020528060005260406000206000915090508060000160009054906101000a900473ffffffffffffffffffffffffffffffffffffffff16908060010154908060020180546106c3906112b9565b80601f01602080910402602001604051908101604052809291908181526020018280546106ef906112b9565b801561073c5780601f106107115761010080835404028352916020019161073c565b820191906000526020600020905b81548152906001019060200180831161071f57829003601f168201915b5050505050908060030154908060040160009054906101000a900460ff16905085565b600060606000806000808660405160200161077a9190611326565b604051602081830303815290604052805190602001209050600080600083815260200190815260200160002090508060040160009054906101000a900460ff16965086156108185760018160030160008282546107d7919061122d565b925050819055507ff3770967cfefb85aaf87a4d76b338958f8c04b418c723508c723892ee12ac942824260405161080f929190611261565b60405180910390a15b868160020182600101548360000160009054906101000a900473ffffffffffffffffffffffffffffffffffffffff168460030154838054610858906112b9565b80601f0160208091040260200160405190810160405280929190818152602001828054610884906112b9565b80156108d15780601f106108a6576101008083540402835291602001916108d1565b820191906000526020600020905b8154815290600101906020018083116108b457829003601f168201915b5050505050935096509650965096509650505091939590929450565b6000600160003373ffffffffffffffffffffffffffffffffffffffff1673ffffffffffffffffffffffffffffffffffffffff16815260200190815260200160002060009054906101000a900460ff1661097b576040517f08c379a000000000000000000000000000000000000000000000000000000000815260040161097290611389565b60405180910390fd5b60008560405160200161098e9190611326565b60405160208183030381529060405280519060200120905060008082815260200190815260200160002060040160009054906101000a900460ff1615610a09576040517f08c379a0000000000000000000000000000000000000000000000000000000008152600401610a00906113f5565b60405180910390fd5b6040518060a001604052808673ffffffffffffffffffffffffffffffffffffffff168152602001858152602001848152602001600081526020016001151581525060008083815260200190815260200160002060008201518160000160006101000a81548173ffffffffffffffffffffffffffffffffffffffff021916908373ffffffffffffffffffffffffffffffffffffffff160217905550602082015181600101556040820151816002019081610ac291906115c1565b506060820151816003015560808201518160040160006101000a81548160ff0219169083151502179055509050507f9d741bb47d77e8114672a5ec2555bf253cec0a7abac632fa718fca57126afa8e818685604051610b2393929190611693565b60405180910390a180915050949350505050565b6000606060008060008060008088815260200190815260200160002090508060040160009054906101000a900460ff168160020182600101548360000160009054906101000a900473ffffffffffffffffffffffffffffffffffffffff168460030154838054610ba6906112b9565b80601f0160208091040260200160405190810160405280929190818152602001828054610bd2906112b9565b8015610c1f5780601f10610bf457610100808354040283529160200191610c1f565b820191906000526020600020905b815481529060010190602001808311610c0257829003601f168201915b50505050509350955095509550955095505091939590929450565b6000604051905090565b600080fd5b600080fd5b600073ffffffffffffffffffffffffffffffffffffffff82169050919050565b6000610c7982610c4e565b9050919050565b610c8981610c6e565b8114610c9457600080fd5b50565b600081359050610ca681610c80565b92915050565b600060208284031215610cc257610cc1610c44565b5b6000610cd084828501610c97565b91505092915050565b60008115159050919050565b610cee81610cd9565b82525050565b6000602082019050610d096000830184610ce5565b92915050565b6000819050919050565b610d2281610d0f565b8114610d2d57600080fd5b50565b600081359050610d3f81610d19565b92915050565b600060208284031215610d5b57610d5a610c44565b5b6000610d6984828501610d30565b91505092915050565b600081519050919050565b600082825260208201905092915050565b60005b83811015610dac578082015181840152602081019050610d91565b60008484015250505050565b6000601f19601f8301169050919050565b6000610dd482610d72565b610dde8185610d7d565b9350610dee818560208601610d8e565b610df781610db8565b840191505092915050565b6000819050919050565b610e1581610e02565b82525050565b610e2481610c6e565b82525050565b600060a082019050610e3f6000830188610ce5565b8181036020830152610e518187610dc9565b9050610e606040830186610e0c565b610e6d6060830185610e1b565b610e7a6080830184610e0c565b9695505050505050565b6000602082019050610e996000830184610e1b565b92915050565b600080fd5b600080fd5b7f4e487b7100000000000000000000000000000000000000000000000000000000600052604160045260246000fd5b610ee182610db8565b810181811067ffffffffffffffff82111715610f0057610eff610ea9565b5b80604052505050565b6000610f13610c3a565b9050610f1f8282610ed8565b919050565b600067ffffffffffffffff821115610f3f57610f3e610ea9565b5b610f4882610db8565b9050602081019050919050565b82818337600083830152505050565b6000610f77610f7284610f24565b610f09565b905082815260208101848484011115610f9357610f92610ea4565b5b610f9e848285610f55565b509392505050565b600082601f830112610fbb57610fba610e9f565b5b8135610fcb848260208601610f64565b91505092915050565b600060208284031215610fea57610fe9610c44565b5b600082013567ffffffffffffffff81111561100857611007610c49565b5b61101484828501610fa6565b91505092915050565b61102681610d0f565b82525050565b6000602082019050611041600083018461101d565b92915050565b600060a08201905061105c6000830188610e1b565b6110696020830187610e0c565b818103604083015261107b8186610dc9565b905061108a6060830185610e0c565b6110976080830184610ce5565b9695505050505050565b6110aa81610e02565b81146110b557600080fd5b50565b6000813590506110c7816110a1565b92915050565b600080600080608085870312156110e7576110e6610c44565b5b600085013567ffffffffffffffff81111561110557611104610c49565b5b61111187828801610fa6565b945050602061112287828801610c97565b9350506040611133878288016110b8565b925050606085013567ffffffffffffffff81111561115457611153610c49565b5b61116087828801610fa6565b91505092959194509250565b7f4f6e6c79206f776e65722063616e2063616c6c20746869732066756e6374696f60008201527f6e00000000000000000000000000000000000000000000000000000000000000602082015250565b60006111c8602183610d7d565b91506111d38261116c565b604082019050919050565b600060208201905081810360008301526111f7816111bb565b9050919050565b7f4e487b7100000000000000000000000000000000000000000000000000000000600052601160045260246000fd5b600061123882610e02565b915061124383610e02565b925082820190508082111561125b5761125a6111fe565b5b92915050565b6000604082019050611276600083018561101d565b6112836020830184610e0c565b9392505050565b7f4e487b7100000000000000000000000000000000000000000000000000000000600052602260045260246000fd5b600060028204905060018216806112d157607f821691505b6020821081036112e4576112e361128a565b5b50919050565b600081905092915050565b600061130082610d72565b61130a81856112ea565b935061131a818560208601610d8e565b80840191505092915050565b600061133282846112f5565b915081905092915050565b7f4e6f7420617574686f72697a6564000000000000000000000000000000000000600082015250565b6000611373600e83610d7d565b915061137e8261133d565b602082019050919050565b600060208201905081810360008301526113a281611366565b9050919050565b7f426174636820616c726561647920726567697374657265640000000000000000600082015250565b60006113df601883610d7d565b91506113ea826113a9565b602082019050919050565b6000602082019050818103600083015261140e816113d2565b9050919050565b60008190508160005260206000209050919050565b60006020601f8301049050919050565b600082821b905092915050565b6000600883026114777fffffffffffffffffffffffffffffffffffffffffffffffffffffffffffffffff8261143a565b611481868361143a565b95508019841693508086168417925050509392505050565b6000819050919050565b60006114be6114b96114b484610e02565b611499565b610e02565b9050919050565b6000819050919050565b6114d8836114a3565b6114ec6114e4826114c5565b848454611447565b825550505050565b600090565b6115016114f4565b61150c8184846114cf565b505050565b5b81811015611530576115256000826114f9565b600181019050611512565b5050565b601f8211156115755761154681611415565b61154f8461142a565b8101602085101561155e578190505b61157261156a8561142a565b830182611511565b50505b505050565b600082821c905092915050565b60006115986000198460080261157a565b1980831691505092915050565b60006115b18383611587565b9150826002028217905092915050565b6115ca82610d72565b67ffffffffffffffff8111156115e3576115e2610ea9565b5b6115ed82546112b9565b6115f8828285611534565b600060209050601f83116001811461162b5760008415611619578287015190505b61162385826115a5565b86555061168b565b601f19841661163986611415565b60005b828110156116615784890151825560018201915060208501945060208101905061163c565b8683101561167e578489015161167a601f891682611587565b8355505b6001600288020188555050505b505050505050565b60006060820190506116a8600083018661101d565b6116b56020830185610e1b565b81810360408301526116c78184610dc9565b905094935050505056fea2646970667358221220e9dff5350edf1f6232658876e13947cf8c4887b6a452f0ab336e25412143eb0464736f6c63430008140033",
  "linkReferences": {},
  "deployedLinkReferences": {}
}